{
  "contractName": "lending",
  "abi": [
    {
      "inputs": [],
      "name": "_currentprotocol",
      "outputs": [
        {
          "internalType": "enum lending.Currentprotocol",
          "name": "",
          "type": "uint8"
        }
      ],
      "stateMutability": "view",
      "type": "function"
    },
    {
      "inputs": [
        {
          "internalType": "uint256",
          "name": "i",
          "type": "uint256"
        }
      ],
      "name": "updatecompoundinterestrate",
      "outputs": [],
      "stateMutability": "nonpayable",
      "type": "function"
    },
    {
      "inputs": [],
      "name": "updateaaveinterestrate",
      "outputs": [],
      "stateMutability": "nonpayable",
      "type": "function"
    },
    {
      "inputs": [
        {
          "internalType": "uint256",
          "name": "amount",
          "type": "uint256"
        }
      ],
      "name": "deposit",
      "outputs": [],
      "stateMutability": "nonpayable",
      "type": "function"
    },
    {
      "inputs": [],
      "name": "contractbalanceofuser",
      "outputs": [
        {
          "internalType": "uint256",
          "name": "",
          "type": "uint256"
        }
      ],
      "stateMutability": "view",
      "type": "function"
    },
    {
      "inputs": [],
      "name": "rebalance",
      "outputs": [],
      "stateMutability": "nonpayable",
      "type": "function"
    },
    {
      "inputs": [],
      "name": "withdraw",
      "outputs": [],
      "stateMutability": "nonpayable",
      "type": "function"
    },
    {
      "inputs": [],
      "name": "balanceofcontract",
      "outputs": [
        {
          "internalType": "uint256",
          "name": "",
          "type": "uint256"
        }
      ],
      "stateMutability": "view",
      "type": "function"
    }
  ],
  "bytecode": "0x6080604052736b175474e89094c44da98b954eedeac495271d0f6000806101000a81548173ffffffffffffffffffffffffffffffffffffffff021916908373ffffffffffffffffffffffffffffffffffffffff160217905550735d3a536e4d6dbd6114cc1ead35777bab948e3643600160006101000a81548173ffffffffffffffffffffffffffffffffffffffff021916908373ffffffffffffffffffffffffffffffffffffffff16021790555073398ec7346dcd622edc5ae82352f02be94c62d119600260006101000a81548173ffffffffffffffffffffffffffffffffffffffff021916908373ffffffffffffffffffffffffffffffffffffffff160217905550605160055534801561011357600080fd5b5061181d806101236000396000f3fe608060405234801561001057600080fd5b50600436106100885760003560e01c80637d7c2a1c1161005b5780637d7c2a1c146100ef578063a59917aa146100f9578063b3d8671514610103578063b6b55f251461012157610088565b80633ccfd60b1461008d5780633d50cfcd146100975780635edf029f146100b5578063666aa2df146100d3575b600080fd5b61009561013d565b005b61009f6108e3565b6040516100ac9190611549565b60405180910390f35b6100bd61092a565b6040516100ca919061152e565b60405180910390f35b6100ed60048036038101906100e8919061139a565b61093d565b005b6100f7610953565b005b610101610e8d565b005b61010b610e8f565b6040516101189190611549565b60405180910390f35b61013b6004803603810190610136919061139a565b610f40565b005b6301e1338060065461014f9190611564565b42101561015b57600080fd5b60011515600a60003373ffffffffffffffffffffffffffffffffffffffff1673ffffffffffffffffffffffffffffffffffffffff16815260200190815260200160002060009054906101000a900460ff161515146101b857600080fd5b600860003373ffffffffffffffffffffffffffffffffffffffff1673ffffffffffffffffffffffffffffffffffffffff16815260200190815260200160002054600860003373ffffffffffffffffffffffffffffffffffffffff1673ffffffffffffffffffffffffffffffffffffffff16815260200190815260200160002060008282546102469190611645565b9250508190555060016002811115610287577f4e487b7100000000000000000000000000000000000000000000000000000000600052602160045260246000fd5b600960003373ffffffffffffffffffffffffffffffffffffffff1673ffffffffffffffffffffffffffffffffffffffff16815260200190815260200160002060009054906101000a900460ff16600281111561030c577f4e487b7100000000000000000000000000000000000000000000000000000000600052602160045260246000fd5b141561059b57600160009054906101000a900473ffffffffffffffffffffffffffffffffffffffff1673ffffffffffffffffffffffffffffffffffffffff1663db006a75600860003373ffffffffffffffffffffffffffffffffffffffff1673ffffffffffffffffffffffffffffffffffffffff168152602001908152602001600020546040518263ffffffff1660e01b81526004016103ac9190611549565b602060405180830381600087803b1580156103c657600080fd5b505af11580156103da573d6000803e3d6000fd5b505050506040513d601f19601f820116820180604052508101906103fe91906113c3565b50606460045461040e91906115ba565b600860003373ffffffffffffffffffffffffffffffffffffffff1673ffffffffffffffffffffffffffffffffffffffff1681526020019081526020016000205461045891906115eb565b600860003373ffffffffffffffffffffffffffffffffffffffff1673ffffffffffffffffffffffffffffffffffffffff16815260200190815260200160002060008282546104a69190611564565b9250508190555060008054906101000a900473ffffffffffffffffffffffffffffffffffffffff1673ffffffffffffffffffffffffffffffffffffffff1663a9059cbb33600860003373ffffffffffffffffffffffffffffffffffffffff1673ffffffffffffffffffffffffffffffffffffffff168152602001908152602001600020546040518363ffffffff1660e01b81526004016105479291906114ce565b602060405180830381600087803b15801561056157600080fd5b505af1158015610575573d6000803e3d6000fd5b505050506040513d601f19601f820116820180604052508101906105999190611371565b505b6002808111156105d4577f4e487b7100000000000000000000000000000000000000000000000000000000600052602160045260246000fd5b600960003373ffffffffffffffffffffffffffffffffffffffff1673ffffffffffffffffffffffffffffffffffffffff16815260200190815260200160002060009054906101000a900460ff166002811115610659577f4e487b7100000000000000000000000000000000000000000000000000000000600052602160045260246000fd5b14156108e157600260009054906101000a900473ffffffffffffffffffffffffffffffffffffffff1673ffffffffffffffffffffffffffffffffffffffff16639895e3d8736b175474e89094c44da98b954eedeac495271d0f30600860003373ffffffffffffffffffffffffffffffffffffffff1673ffffffffffffffffffffffffffffffffffffffff16815260200190815260200160002054426040518563ffffffff1660e01b81526004016107139493929190611452565b600060405180830381600087803b15801561072d57600080fd5b505af1158015610741573d6000803e3d6000fd5b50505050606460055461075491906115ba565b600860003373ffffffffffffffffffffffffffffffffffffffff1673ffffffffffffffffffffffffffffffffffffffff1681526020019081526020016000205461079e91906115eb565b600860003373ffffffffffffffffffffffffffffffffffffffff1673ffffffffffffffffffffffffffffffffffffffff16815260200190815260200160002060008282546107ec9190611564565b9250508190555060008054906101000a900473ffffffffffffffffffffffffffffffffffffffff1673ffffffffffffffffffffffffffffffffffffffff1663a9059cbb33600860003373ffffffffffffffffffffffffffffffffffffffff1673ffffffffffffffffffffffffffffffffffffffff168152602001908152602001600020546040518363ffffffff1660e01b815260040161088d9291906114ce565b602060405180830381600087803b1580156108a757600080fd5b505af11580156108bb573d6000803e3d6000fd5b505050506040513d601f19601f820116820180604052508101906108df9190611371565b505b565b6000600860003373ffffffffffffffffffffffffffffffffffffffff1673ffffffffffffffffffffffffffffffffffffffff16815260200190815260200160002054905090565b600760009054906101000a900460ff1681565b60648161094a91906115eb565b60048190555050565b60011515600a60003373ffffffffffffffffffffffffffffffffffffffff1673ffffffffffffffffffffffffffffffffffffffff16815260200190815260200160002060009054906101000a900460ff161515146109b057600080fd5b6005546004541115610c1e57600260009054906101000a900473ffffffffffffffffffffffffffffffffffffffff1673ffffffffffffffffffffffffffffffffffffffff16639895e3d8736b175474e89094c44da98b954eedeac495271d0f30600860003373ffffffffffffffffffffffffffffffffffffffff1673ffffffffffffffffffffffffffffffffffffffff16815260200190815260200160002054426040518563ffffffff1660e01b8152600401610a709493929190611452565b600060405180830381600087803b158015610a8a57600080fd5b505af1158015610a9e573d6000803e3d6000fd5b50505050600160009054906101000a900473ffffffffffffffffffffffffffffffffffffffff1673ffffffffffffffffffffffffffffffffffffffff1663a0712d68600860003373ffffffffffffffffffffffffffffffffffffffff1673ffffffffffffffffffffffffffffffffffffffff168152602001908152602001600020546040518263ffffffff1660e01b8152600401610b3c9190611549565b602060405180830381600087803b158015610b5657600080fd5b505af1158015610b6a573d6000803e3d6000fd5b505050506040513d601f19601f82011682018060405250810190610b8e91906113c3565b506001600960003373ffffffffffffffffffffffffffffffffffffffff1673ffffffffffffffffffffffffffffffffffffffff16815260200190815260200160002060006101000a81548160ff02191690836002811115610c18577f4e487b7100000000000000000000000000000000000000000000000000000000600052602160045260246000fd5b02179055505b6004546005541115610e8b57600160009054906101000a900473ffffffffffffffffffffffffffffffffffffffff1673ffffffffffffffffffffffffffffffffffffffff1663db006a75600860003373ffffffffffffffffffffffffffffffffffffffff1673ffffffffffffffffffffffffffffffffffffffff168152602001908152602001600020546040518263ffffffff1660e01b8152600401610cc49190611549565b602060405180830381600087803b158015610cde57600080fd5b505af1158015610cf2573d6000803e3d6000fd5b505050506040513d601f19601f82011682018060405250810190610d1691906113c3565b50600260009054906101000a900473ffffffffffffffffffffffffffffffffffffffff1673ffffffffffffffffffffffffffffffffffffffff1663d2d0e066736b175474e89094c44da98b954eedeac495271d0f600860003373ffffffffffffffffffffffffffffffffffffffff1673ffffffffffffffffffffffffffffffffffffffff1681526020019081526020016000205460006040518463ffffffff1660e01b8152600401610dca939291906114f7565b600060405180830381600087803b158015610de457600080fd5b505af1158015610df8573d6000803e3d6000fd5b505050506002600960003373ffffffffffffffffffffffffffffffffffffffff1673ffffffffffffffffffffffffffffffffffffffff16815260200190815260200160002060006101000a81548160ff02191690836002811115610e85577f4e487b7100000000000000000000000000000000000000000000000000000000600052602160045260246000fd5b02179055505b565b565b60008060009054906101000a900473ffffffffffffffffffffffffffffffffffffffff1673ffffffffffffffffffffffffffffffffffffffff166370a08231306040518263ffffffff1660e01b8152600401610eeb9190611437565b60206040518083038186803b158015610f0357600080fd5b505afa158015610f17573d6000803e3d6000fd5b505050506040513d601f19601f82011682018060405250810190610f3b91906113c3565b905090565b60008054906101000a900473ffffffffffffffffffffffffffffffffffffffff1673ffffffffffffffffffffffffffffffffffffffff166323b872dd3330846040518463ffffffff1660e01b8152600401610f9d93929190611497565b602060405180830381600087803b158015610fb757600080fd5b505af1158015610fcb573d6000803e3d6000fd5b505050506040513d601f19601f82011682018060405250810190610fef9190611371565b5080600860003373ffffffffffffffffffffffffffffffffffffffff1673ffffffffffffffffffffffffffffffffffffffff168152602001908152602001600020600082825461103f9190611564565b925050819055506001600a60003373ffffffffffffffffffffffffffffffffffffffff1673ffffffffffffffffffffffffffffffffffffffff16815260200190815260200160002060006101000a81548160ff0219169083151502179055504260068190555060055460045411156111ee57600160009054906101000a900473ffffffffffffffffffffffffffffffffffffffff1673ffffffffffffffffffffffffffffffffffffffff1663a0712d68826040518263ffffffff1660e01b815260040161110c9190611549565b602060405180830381600087803b15801561112657600080fd5b505af115801561113a573d6000803e3d6000fd5b505050506040513d601f19601f8201168201806040525081019061115e91906113c3565b506001600960003373ffffffffffffffffffffffffffffffffffffffff1673ffffffffffffffffffffffffffffffffffffffff16815260200190815260200160002060006101000a81548160ff021916908360028111156111e8577f4e487b7100000000000000000000000000000000000000000000000000000000600052602160045260246000fd5b02179055505b600454600554111561132f57600260009054906101000a900473ffffffffffffffffffffffffffffffffffffffff1673ffffffffffffffffffffffffffffffffffffffff1663d2d0e066736b175474e89094c44da98b954eedeac495271d0f8360006040518463ffffffff1660e01b815260040161126e939291906114f7565b600060405180830381600087803b15801561128857600080fd5b505af115801561129c573d6000803e3d6000fd5b505050506002600960003373ffffffffffffffffffffffffffffffffffffffff1673ffffffffffffffffffffffffffffffffffffffff16815260200190815260200160002060006101000a81548160ff02191690836002811115611329577f4e487b7100000000000000000000000000000000000000000000000000000000600052602160045260246000fd5b02179055505b50565b600081519050611341816117b9565b92915050565b600081359050611356816117d0565b92915050565b60008151905061136b816117d0565b92915050565b60006020828403121561138357600080fd5b600061139184828501611332565b91505092915050565b6000602082840312156113ac57600080fd5b60006113ba84828501611347565b91505092915050565b6000602082840312156113d557600080fd5b60006113e38482850161135c565b91505092915050565b6113f58161168b565b82525050565b61140481611679565b82525050565b611413816116f4565b82525050565b61142281611706565b82525050565b611431816116ea565b82525050565b600060208201905061144c60008301846113fb565b92915050565b600060808201905061146760008301876113fb565b61147460208301866113ec565b6114816040830185611428565b61148e6060830184611428565b95945050505050565b60006060820190506114ac60008301866113fb565b6114b960208301856113fb565b6114c66040830184611428565b949350505050565b60006040820190506114e360008301856113fb565b6114f06020830184611428565b9392505050565b600060608201905061150c60008301866113fb565b6115196020830185611428565b6115266040830184611419565b949350505050565b6000602082019050611543600083018461140a565b92915050565b600060208201905061155e6000830184611428565b92915050565b600061156f826116ea565b915061157a836116ea565b9250827fffffffffffffffffffffffffffffffffffffffffffffffffffffffffffffffff038211156115af576115ae611718565b5b828201905092915050565b60006115c5826116ea565b91506115d0836116ea565b9250826115e0576115df611747565b5b828204905092915050565b60006115f6826116ea565b9150611601836116ea565b9250817fffffffffffffffffffffffffffffffffffffffffffffffffffffffffffffffff048311821515161561163a57611639611718565b5b828202905092915050565b6000611650826116ea565b915061165b836116ea565b92508282101561166e5761166d611718565b5b828203905092915050565b6000611684826116ca565b9050919050565b6000611696826116ca565b9050919050565b60008115159050919050565b60008190506116b7826117a5565b919050565b600061ffff82169050919050565b600073ffffffffffffffffffffffffffffffffffffffff82169050919050565b6000819050919050565b60006116ff826116a9565b9050919050565b6000611711826116bc565b9050919050565b7f4e487b7100000000000000000000000000000000000000000000000000000000600052601160045260246000fd5b7f4e487b7100000000000000000000000000000000000000000000000000000000600052601260045260246000fd5b7f4e487b7100000000000000000000000000000000000000000000000000000000600052602160045260246000fd5b600381106117b6576117b5611776565b5b50565b6117c28161169d565b81146117cd57600080fd5b50565b6117d9816116ea565b81146117e457600080fd5b5056fea26469706673582212200abe574bf6a4edc1218b6056040d2a7cc4feaf63b16b55e0e3351e27dac99e6764736f6c63430008000033",
  "immutableReferences": {},
  "source": "pragma solidity 0.8.0;\r\ninterface Idai{\r\n    function approve(address usr, uint wad) external returns (bool) ;\r\n    function transfer(address dst, uint wad) external returns (bool);\r\n    function transferFrom(address src, address dst, uint wad)external returns (bool);\r\n    function balanceOf(address add)external view returns(uint);\r\n    \r\n}\r\n\r\ninterface Iaave{\r\n     function deposit(address _reserve, uint256 _amount, uint16 _referralCode)\r\n        external\r\n        payable\r\n        ;\r\n        \r\n    function redeemUnderlying(\r\n        address _reserve,\r\n        address payable _user,\r\n        uint256 _amount,\r\n        uint256 _aTokenBalanceAfterRedeem\r\n    )\r\n        external;\r\n    \r\n    \r\n   \r\n    function getReserveData(address _reserve)\r\n        external\r\n        view\r\n        returns (\r\n            uint256 totalLiquidity,\r\n            uint256 availableLiquidity,\r\n            uint256 totalBorrowsStable,\r\n            uint256 totalBorrowsVariable,\r\n            uint256 liquidityRate,\r\n            uint256 variableBorrowRate,\r\n            uint256 stableBorrowRate,\r\n            uint256 averageStableBorrowRate,\r\n            uint256 utilizationRate,\r\n            uint256 liquidityIndex,\r\n            uint256 variableBorrowIndex,\r\n            address aTokenAddress,\r\n            uint40 lastUpdateTimestamp\r\n        );\r\n}\r\n\r\ninterface Icompound{\r\n    function mint(uint mintAmount) external returns (uint) ;\r\n    function redeem(uint redeemTokens) external returns (uint) ;\r\n    \r\n}\r\n\r\n\r\ncontract lending{\r\n    Idai _Idai= Idai(0x6B175474E89094C44Da98b954EedeAC495271d0F);\r\n     Icompound  _Icompound= Icompound(0x5d3a536E4D6DbD6114cc1Ead35777bAB948E3643);\r\n     Iaave _Iaave=Iaave(0x398eC7346DcD622eDc5ae82352F02bE94C62d119);\r\n    uint interestratea;\r\n    uint compoundinterestrate; // this would be gotten using compound api \r\n    uint aaveinterestrate=0.81*100;\r\n    uint withdrawtime;\r\n    \r\n    \r\n   \r\n    enum Currentprotocol{NONE,COMPOUND,AAVE}\r\n    Currentprotocol public _currentprotocol;\r\n    mapping (address=>uint) userbalanceincontract;\r\n    \r\n    mapping (address=>Currentprotocol) trackingcurrentprotocol;\r\n    mapping (address=>bool) check;\r\n    \r\n    function updatecompoundinterestrate(uint i) public{\r\n        \r\n        compoundinterestrate=i*100;\r\n    }\r\n    \r\n    function updateaaveinterestrate()public{\r\n    // (,,,,,,,aaveinterestrate,,,,,) =_Iaave.getReserveData(0x6B175474E89094C44Da98b954EedeAC495271d0F);\r\n        \r\n    }\r\n    \r\n    \r\n    function deposit(uint amount)public {\r\n        _Idai.transferFrom(msg.sender, address(this), amount);\r\n        userbalanceincontract[msg.sender]+=amount;\r\n        check[msg.sender] =true;\r\n        withdrawtime=block.timestamp;\r\n     if (compoundinterestrate>aaveinterestrate){\r\n         _Icompound.mint(amount); \r\n         trackingcurrentprotocol[msg.sender]=Currentprotocol.COMPOUND;\r\n         \r\n     }\r\n     if(aaveinterestrate>compoundinterestrate){\r\n         _Iaave.deposit(0x6B175474E89094C44Da98b954EedeAC495271d0F,amount, 0);\r\n          trackingcurrentprotocol[msg.sender]=Currentprotocol.AAVE;\r\n         \r\n     }\r\n    }\r\n    \r\n    function contractbalanceofuser()public view returns(uint){\r\n        return userbalanceincontract[msg.sender];\r\n    }\r\n    \r\n function rebalance()public{\r\n     require( check[msg.sender] ==true);\r\n      if (compoundinterestrate>aaveinterestrate){\r\n       _Iaave.redeemUnderlying(0x6B175474E89094C44Da98b954EedeAC495271d0F,payable(address(this)),userbalanceincontract[msg.sender],block.timestamp);\r\n        _Icompound.mint(userbalanceincontract[msg.sender]);\r\n        trackingcurrentprotocol[msg.sender]=Currentprotocol.COMPOUND;\r\n     }\r\n     if(aaveinterestrate>compoundinterestrate){\r\n     _Icompound.redeem(userbalanceincontract[msg.sender]);\r\n      _Iaave.deposit(0x6B175474E89094C44Da98b954EedeAC495271d0F,userbalanceincontract[msg.sender], 0);\r\n       trackingcurrentprotocol[msg.sender]=Currentprotocol.AAVE;\r\n     \r\n     }\r\n     \r\n        \r\n    }\r\n\r\nfunction withdraw()public {\r\n   require(block.timestamp>=withdrawtime+ 365 days);\r\n   require(check[msg.sender] ==true);\r\n   userbalanceincontract[msg.sender]-=userbalanceincontract[msg.sender];\r\n   if ( trackingcurrentprotocol[msg.sender]==Currentprotocol.COMPOUND){\r\n        _Icompound.redeem(userbalanceincontract[msg.sender]);\r\n        userbalanceincontract[msg.sender] += userbalanceincontract[msg.sender]* (compoundinterestrate/100);\r\n         _Idai.transfer(msg.sender,userbalanceincontract[msg.sender]);\r\n        \r\n   }\r\n   if ( trackingcurrentprotocol[msg.sender]==Currentprotocol.AAVE){\r\n        _Iaave.redeemUnderlying(0x6B175474E89094C44Da98b954EedeAC495271d0F,payable(address(this)),userbalanceincontract[msg.sender],block.timestamp);\r\n          userbalanceincontract[msg.sender]+=(userbalanceincontract[msg.sender]*(aaveinterestrate/100) );\r\n          _Idai.transfer(msg.sender,userbalanceincontract[msg.sender]);\r\n         \r\n        \r\n   }\r\n   \r\n    \r\n}\r\n\r\nfunction balanceofcontract()public view returns(uint){\r\n    return _Idai.balanceOf(address(this));\r\n}\r\n\r\n\r\n    \r\n    \r\n    \r\n }",
  "sourcePath": "C:\\Users\\ifeanyi\\Desktop\\truffle\\contracts\\lendingcontract.sol",
  "compiler": {
    "name": "solc",
    "version": "0.8.0+commit.c7dfd78e.Emscripten.clang"
  },
  "schemaVersion": "3.4.2",
  "updatedAt": "2021-09-23T13:37:38.918Z",
  "devdoc": {
    "kind": "dev",
    "methods": {},
    "version": 1
  },
  "userdoc": {
    "kind": "user",
    "methods": {},
    "version": 1
  }
}